{
  "_format": "hh-sol-artifact-1",
  "contractName": "bankAccount",
  "sourceName": "contracts/bank.sol",
  "abi": [
    {
      "inputs": [],
      "stateMutability": "nonpayable",
      "type": "constructor"
    },
    {
      "anonymous": false,
      "inputs": [
        {
          "indexed": false,
          "internalType": "address",
          "name": "_accountAddress",
          "type": "address"
        },
        {
          "indexed": false,
          "internalType": "string",
          "name": "name",
          "type": "string"
        },
        {
          "indexed": false,
          "internalType": "string",
          "name": "email",
          "type": "string"
        }
      ],
      "name": "accountCreated",
      "type": "event"
    },
    {
      "anonymous": false,
      "inputs": [
        {
          "indexed": false,
          "internalType": "address",
          "name": "depositor",
          "type": "address"
        },
        {
          "indexed": false,
          "internalType": "uint256",
          "name": "_amount",
          "type": "uint256"
        }
      ],
      "name": "depositEvent",
      "type": "event"
    },
    {
      "anonymous": false,
      "inputs": [
        {
          "indexed": false,
          "internalType": "address",
          "name": "withdrawer",
          "type": "address"
        },
        {
          "indexed": false,
          "internalType": "uint256",
          "name": "_withdraw",
          "type": "uint256"
        }
      ],
      "name": "withdrawEvent",
      "type": "event"
    },
    {
      "inputs": [
        {
          "internalType": "address",
          "name": "",
          "type": "address"
        }
      ],
      "name": "accounts",
      "outputs": [
        {
          "internalType": "string",
          "name": "name",
          "type": "string"
        },
        {
          "internalType": "string",
          "name": "email",
          "type": "string"
        },
        {
          "internalType": "bool",
          "name": "isActive",
          "type": "bool"
        },
        {
          "internalType": "uint256",
          "name": "balance",
          "type": "uint256"
        }
      ],
      "stateMutability": "view",
      "type": "function"
    },
    {
      "inputs": [
        {
          "internalType": "string",
          "name": "_name",
          "type": "string"
        },
        {
          "internalType": "string",
          "name": "_email",
          "type": "string"
        }
      ],
      "name": "createbankAccount",
      "outputs": [],
      "stateMutability": "nonpayable",
      "type": "function"
    },
    {
      "inputs": [
        {
          "internalType": "string",
          "name": "",
          "type": "string"
        }
      ],
      "name": "createdAccounts",
      "outputs": [
        {
          "internalType": "bool",
          "name": "",
          "type": "bool"
        }
      ],
      "stateMutability": "view",
      "type": "function"
    },
    {
      "inputs": [],
      "name": "deposit",
      "outputs": [
        {
          "internalType": "uint256",
          "name": "",
          "type": "uint256"
        }
      ],
      "stateMutability": "payable",
      "type": "function"
    },
    {
      "inputs": [],
      "name": "getAccountDetails",
      "outputs": [
        {
          "internalType": "string",
          "name": "",
          "type": "string"
        },
        {
          "internalType": "string",
          "name": "",
          "type": "string"
        },
        {
          "internalType": "bool",
          "name": "",
          "type": "bool"
        },
        {
          "internalType": "uint256",
          "name": "",
          "type": "uint256"
        }
      ],
      "stateMutability": "view",
      "type": "function"
    },
    {
      "inputs": [],
      "name": "getBalance",
      "outputs": [
        {
          "internalType": "uint256",
          "name": "",
          "type": "uint256"
        }
      ],
      "stateMutability": "view",
      "type": "function"
    },
    {
      "inputs": [],
      "name": "owner",
      "outputs": [
        {
          "internalType": "address payable",
          "name": "",
          "type": "address"
        }
      ],
      "stateMutability": "view",
      "type": "function"
    },
    {
      "inputs": [
        {
          "internalType": "address payable",
          "name": "_to",
          "type": "address"
        },
        {
          "internalType": "uint256",
          "name": "_amount",
          "type": "uint256"
        }
      ],
      "name": "sendFunds",
      "outputs": [],
      "stateMutability": "payable",
      "type": "function"
    },
    {
      "inputs": [
        {
          "internalType": "uint256",
          "name": "_amount",
          "type": "uint256"
        }
      ],
      "name": "withdraw",
      "outputs": [
        {
          "internalType": "uint256",
          "name": "remainingBalance",
          "type": "uint256"
        }
      ],
      "stateMutability": "nonpayable",
      "type": "function"
    },
    {
      "stateMutability": "payable",
      "type": "receive"
    }
  ],
  "bytecode": "0x608060405234801561001057600080fd5b50336000806101000a81548173ffffffffffffffffffffffffffffffffffffffff021916908373ffffffffffffffffffffffffffffffffffffffff160217905550611c58806100606000396000f3fe6080604052600436106100885760003560e01c80636f64234e116100595780636f64234e14610208578063711d4c87146102245780638da5cb5b1461024d578063c39869c114610278578063d0e30db0146102a65761011e565b8061e5fb1461012357806312065fe0146101605780632e1a7d4d1461018b5780635e5c06e2146101c85761011e565b3661011e5734600360003373ffffffffffffffffffffffffffffffffffffffff1673ffffffffffffffffffffffffffffffffffffffff16815260200190815260200160002060008282546100dc9190611065565b925050819055507f47170ad76c9bbdb15dfbafd993321119023982de922af38d00684afaac15b8ea33346040516101149291906110e9565b60405180910390a1005b600080fd5b34801561012f57600080fd5b5061014a6004803603810190610145919061126c565b6102c4565b60405161015791906112d0565b60405180910390f35b34801561016c57600080fd5b506101756102fa565b60405161018291906112eb565b60405180910390f35b34801561019757600080fd5b506101b260048036038101906101ad9190611332565b6103cf565b6040516101bf91906112eb565b60405180910390f35b3480156101d457600080fd5b506101ef60048036038101906101ea919061138b565b6105b7565b6040516101ff9493929190611437565b60405180910390f35b610222600480360381019061021d91906114c8565b610704565b005b34801561023057600080fd5b5061024b60048036038101906102469190611508565b61091b565b005b34801561025957600080fd5b50610262610ac0565b60405161026f919061158f565b60405180910390f35b34801561028457600080fd5b5061028d610ae4565b60405161029d9493929190611437565b60405180910390f35b6102ae610d6d565b6040516102bb91906112eb565b60405180910390f35b6002818051602081018201805184825260208301602085012081835280955050505050506000915054906101000a900460ff1681565b60003373ffffffffffffffffffffffffffffffffffffffff1660008054906101000a900473ffffffffffffffffffffffffffffffffffffffff1673ffffffffffffffffffffffffffffffffffffffff161461038a576040517f08c379a0000000000000000000000000000000000000000000000000000000008152600401610381906115f6565b60405180910390fd5b600360003373ffffffffffffffffffffffffffffffffffffffff1673ffffffffffffffffffffffffffffffffffffffff16815260200190815260200160002054905090565b60003373ffffffffffffffffffffffffffffffffffffffff1660008054906101000a900473ffffffffffffffffffffffffffffffffffffffff1673ffffffffffffffffffffffffffffffffffffffff161461045f576040517f08c379a0000000000000000000000000000000000000000000000000000000008152600401610456906115f6565b60405180910390fd5b600360003373ffffffffffffffffffffffffffffffffffffffff1673ffffffffffffffffffffffffffffffffffffffff168152602001908152602001600020548211156104e1576040517f08c379a00000000000000000000000000000000000000000000000000000000081526004016104d890611662565b60405180910390fd5b81600360003373ffffffffffffffffffffffffffffffffffffffff1673ffffffffffffffffffffffffffffffffffffffff16815260200190815260200160002060008282546105309190611682565b925050819055507f87d5f4772963d1f9b76047158b4ae97c420a1b3bff2a746c828beffd9e7c3e2633836040516105689291906110e9565b60405180910390a1600360003373ffffffffffffffffffffffffffffffffffffffff1673ffffffffffffffffffffffffffffffffffffffff168152602001908152602001600020549050919050565b60016020528060005260406000206000915090508060000180546105da906116e5565b80601f0160208091040260200160405190810160405280929190818152602001828054610606906116e5565b80156106535780601f1061062857610100808354040283529160200191610653565b820191906000526020600020905b81548152906001019060200180831161063657829003601f168201915b505050505090806001018054610668906116e5565b80601f0160208091040260200160405190810160405280929190818152602001828054610694906116e5565b80156106e15780601f106106b6576101008083540402835291602001916106e1565b820191906000526020600020905b8154815290600101906020018083116106c457829003601f168201915b5050505050908060020160009054906101000a900460ff16908060030154905084565b3373ffffffffffffffffffffffffffffffffffffffff1660008054906101000a900473ffffffffffffffffffffffffffffffffffffffff1673ffffffffffffffffffffffffffffffffffffffff1614610792576040517f08c379a0000000000000000000000000000000000000000000000000000000008152600401610789906115f6565b60405180910390fd5b80600360003373ffffffffffffffffffffffffffffffffffffffff1673ffffffffffffffffffffffffffffffffffffffff168152602001908152602001600020541015610814576040517f08c379a000000000000000000000000000000000000000000000000000000000815260040161080b90611662565b60405180910390fd5b80600360003373ffffffffffffffffffffffffffffffffffffffff1673ffffffffffffffffffffffffffffffffffffffff16815260200190815260200160002060008282546108639190611682565b9250508190555060008273ffffffffffffffffffffffffffffffffffffffff168260405161089090611747565b60006040518083038185875af1925050503d80600081146108cd576040519150601f19603f3d011682016040523d82523d6000602084013e6108d2565b606091505b5050905080610916576040517f08c379a000000000000000000000000000000000000000000000000000000000815260040161090d906117a8565b60405180910390fd5b505050565b6000151560028260405161092f9190611804565b908152602001604051809103902060009054906101000a900460ff1615151461098d576040517f08c379a000000000000000000000000000000000000000000000000000000000815260040161098490611867565b60405180910390fd5b600160028260405161099f9190611804565b908152602001604051809103902060006101000a81548160ff02191690831515021790555060405180608001604052808381526020018281526020016001151581526020016000815250600160003373ffffffffffffffffffffffffffffffffffffffff1673ffffffffffffffffffffffffffffffffffffffff1681526020019081526020016000206000820151816000019081610a3d9190611a33565b506020820151816001019081610a539190611a33565b5060408201518160020160006101000a81548160ff021916908315150217905550606082015181600301559050507f10c088ff89ce3a6411a44d74d88461b8ab4bd881c9184eda0613954944818a95338383604051610ab493929190611b05565b60405180910390a15050565b60008054906101000a900473ffffffffffffffffffffffffffffffffffffffff1681565b6060806000803373ffffffffffffffffffffffffffffffffffffffff1660008054906101000a900473ffffffffffffffffffffffffffffffffffffffff1673ffffffffffffffffffffffffffffffffffffffff1614610b78576040517f08c379a0000000000000000000000000000000000000000000000000000000008152600401610b6f906115f6565b60405180910390fd5b6000600160003373ffffffffffffffffffffffffffffffffffffffff1673ffffffffffffffffffffffffffffffffffffffff168152602001908152602001600020604051806080016040529081600082018054610bd4906116e5565b80601f0160208091040260200160405190810160405280929190818152602001828054610c00906116e5565b8015610c4d5780601f10610c2257610100808354040283529160200191610c4d565b820191906000526020600020905b815481529060010190602001808311610c3057829003601f168201915b50505050508152602001600182018054610c66906116e5565b80601f0160208091040260200160405190810160405280929190818152602001828054610c92906116e5565b8015610cdf5780601f10610cb457610100808354040283529160200191610cdf565b820191906000526020600020905b815481529060010190602001808311610cc257829003601f168201915b505050505081526020016002820160009054906101000a900460ff161515151581526020016003820154815250509050806000015181602001518260400151600360003373ffffffffffffffffffffffffffffffffffffffff1673ffffffffffffffffffffffffffffffffffffffff1681526020019081526020016000205494509450945094505090919293565b60003373ffffffffffffffffffffffffffffffffffffffff1660008054906101000a900473ffffffffffffffffffffffffffffffffffffffff1673ffffffffffffffffffffffffffffffffffffffff1614610dfd576040517f08c379a0000000000000000000000000000000000000000000000000000000008152600401610df4906115f6565b60405180910390fd5b600160003373ffffffffffffffffffffffffffffffffffffffff1673ffffffffffffffffffffffffffffffffffffffff16815260200190815260200160002060020160009054906101000a900460ff16610e8c576040517f08c379a0000000000000000000000000000000000000000000000000000000008152600401610e8390611b96565b60405180910390fd5b600360003373ffffffffffffffffffffffffffffffffffffffff1673ffffffffffffffffffffffffffffffffffffffff1681526020019081526020016000205434600360003373ffffffffffffffffffffffffffffffffffffffff1673ffffffffffffffffffffffffffffffffffffffff16815260200190815260200160002054610f179190611065565b1015610f58576040517f08c379a0000000000000000000000000000000000000000000000000000000008152600401610f4f90611c02565b60405180910390fd5b34600360003373ffffffffffffffffffffffffffffffffffffffff1673ffffffffffffffffffffffffffffffffffffffff1681526020019081526020016000206000828254610fa79190611065565b925050819055507f47170ad76c9bbdb15dfbafd993321119023982de922af38d00684afaac15b8ea3334604051610fdf9291906110e9565b60405180910390a1600360003373ffffffffffffffffffffffffffffffffffffffff1673ffffffffffffffffffffffffffffffffffffffff16815260200190815260200160002054905090565b6000819050919050565b7f4e487b7100000000000000000000000000000000000000000000000000000000600052601160045260246000fd5b60006110708261102c565b915061107b8361102c565b925082820190508082111561109357611092611036565b5b92915050565b600073ffffffffffffffffffffffffffffffffffffffff82169050919050565b60006110c482611099565b9050919050565b6110d4816110b9565b82525050565b6110e38161102c565b82525050565b60006040820190506110fe60008301856110cb565b61110b60208301846110da565b9392505050565b6000604051905090565b600080fd5b600080fd5b600080fd5b600080fd5b6000601f19601f8301169050919050565b7f4e487b7100000000000000000000000000000000000000000000000000000000600052604160045260246000fd5b61117982611130565b810181811067ffffffffffffffff8211171561119857611197611141565b5b80604052505050565b60006111ab611112565b90506111b78282611170565b919050565b600067ffffffffffffffff8211156111d7576111d6611141565b5b6111e082611130565b9050602081019050919050565b82818337600083830152505050565b600061120f61120a846111bc565b6111a1565b90508281526020810184848401111561122b5761122a61112b565b5b6112368482856111ed565b509392505050565b600082601f83011261125357611252611126565b5b81356112638482602086016111fc565b91505092915050565b6000602082840312156112825761128161111c565b5b600082013567ffffffffffffffff8111156112a05761129f611121565b5b6112ac8482850161123e565b91505092915050565b60008115159050919050565b6112ca816112b5565b82525050565b60006020820190506112e560008301846112c1565b92915050565b600060208201905061130060008301846110da565b92915050565b61130f8161102c565b811461131a57600080fd5b50565b60008135905061132c81611306565b92915050565b6000602082840312156113485761134761111c565b5b60006113568482850161131d565b91505092915050565b611368816110b9565b811461137357600080fd5b50565b6000813590506113858161135f565b92915050565b6000602082840312156113a1576113a061111c565b5b60006113af84828501611376565b91505092915050565b600081519050919050565b600082825260208201905092915050565b60005b838110156113f25780820151818401526020810190506113d7565b60008484015250505050565b6000611409826113b8565b61141381856113c3565b93506114238185602086016113d4565b61142c81611130565b840191505092915050565b6000608082019050818103600083015261145181876113fe565b9050818103602083015261146581866113fe565b905061147460408301856112c1565b61148160608301846110da565b95945050505050565b600061149582611099565b9050919050565b6114a58161148a565b81146114b057600080fd5b50565b6000813590506114c28161149c565b92915050565b600080604083850312156114df576114de61111c565b5b60006114ed858286016114b3565b92505060206114fe8582860161131d565b9150509250929050565b6000806040838503121561151f5761151e61111c565b5b600083013567ffffffffffffffff81111561153d5761153c611121565b5b6115498582860161123e565b925050602083013567ffffffffffffffff81111561156a57611569611121565b5b6115768582860161123e565b9150509250929050565b6115898161148a565b82525050565b60006020820190506115a46000830184611580565b92915050565b7f596f7520617265206e6f7420746865206f776e65720000000000000000000000600082015250565b60006115e06015836113c3565b91506115eb826115aa565b602082019050919050565b6000602082019050818103600083015261160f816115d3565b9050919050565b7f494e53554646494349454e542046554e44530000000000000000000000000000600082015250565b600061164c6012836113c3565b915061165782611616565b602082019050919050565b6000602082019050818103600083015261167b8161163f565b9050919050565b600061168d8261102c565b91506116988361102c565b92508282039050818111156116b0576116af611036565b5b92915050565b7f4e487b7100000000000000000000000000000000000000000000000000000000600052602260045260246000fd5b600060028204905060018216806116fd57607f821691505b6020821081036117105761170f6116b6565b5b50919050565b600081905092915050565b50565b6000611731600083611716565b915061173c82611721565b600082019050919050565b600061175282611724565b9150819050919050565b7f4661696c656420746f2073656e64207468652066756e64730000000000000000600082015250565b60006117926018836113c3565b915061179d8261175c565b602082019050919050565b600060208201905081810360008301526117c181611785565b9050919050565b600081905092915050565b60006117de826113b8565b6117e881856117c8565b93506117f88185602086016113d4565b80840191505092915050565b600061181082846117d3565b915081905092915050565b7f4163636f756e7420616c72656164792065786973747300000000000000000000600082015250565b60006118516016836113c3565b915061185c8261181b565b602082019050919050565b6000602082019050818103600083015261188081611844565b9050919050565b60008190508160005260206000209050919050565b60006020601f8301049050919050565b600082821b905092915050565b6000600883026118e97fffffffffffffffffffffffffffffffffffffffffffffffffffffffffffffffff826118ac565b6118f386836118ac565b95508019841693508086168417925050509392505050565b6000819050919050565b600061193061192b6119268461102c565b61190b565b61102c565b9050919050565b6000819050919050565b61194a83611915565b61195e61195682611937565b8484546118b9565b825550505050565b600090565b611973611966565b61197e818484611941565b505050565b5b818110156119a25761199760008261196b565b600181019050611984565b5050565b601f8211156119e7576119b881611887565b6119c18461189c565b810160208510156119d0578190505b6119e46119dc8561189c565b830182611983565b50505b505050565b600082821c905092915050565b6000611a0a600019846008026119ec565b1980831691505092915050565b6000611a2383836119f9565b9150826002028217905092915050565b611a3c826113b8565b67ffffffffffffffff811115611a5557611a54611141565b5b611a5f82546116e5565b611a6a8282856119a6565b600060209050601f831160018114611a9d5760008415611a8b578287015190505b611a958582611a17565b865550611afd565b601f198416611aab86611887565b60005b82811015611ad357848901518255600182019150602085019450602081019050611aae565b86831015611af05784890151611aec601f8916826119f9565b8355505b6001600288020188555050505b505050505050565b6000606082019050611b1a60008301866110cb565b8181036020830152611b2c81856113fe565b90508181036040830152611b4081846113fe565b9050949350505050565b7f596f75206d7573742063726561746520616e206163636f756e74206669727374600082015250565b6000611b806020836113c3565b9150611b8b82611b4a565b602082019050919050565b60006020820190508181036000830152611baf81611b73565b9050919050565b7f4e6f206465706f736974206d6164650000000000000000000000000000000000600082015250565b6000611bec600f836113c3565b9150611bf782611bb6565b602082019050919050565b60006020820190508181036000830152611c1b81611bdf565b905091905056fea2646970667358221220f4009cc42463468f45ef7a22f38a47d4a2c89e2d13b1d8c857ac4a11ae4264e364736f6c63430008180033",
  "linkReferences": {},
  "deployedLinkReferences": {}
}